:020000040800F2
:10000000482700200101000831280008292800089D
:100010002D28000855010008C52C0008000000002C
:10002000000000000000000000000000712B00082C
:10003000710100080000000035280008752B000839
:100040001B0100081B0100081B0100081B01000820
:100050001B010008392800081B0100081B010008CB
:100060001B0100081B0100081B0100081B01000800
:1000700059010008650100081B0100081B01000868
:100080001B0100081B0100081B0100081B010008E0
:100090001B0100081B0100081B0100081B010008D0
:1000A0001B0100087D2B00081B0100081B01000834
:1000B000892B0008952B0008A12B00081B010008C4
:1000C0001B0100081B0100081B0100083D28000857
:1000D0001B0100081B0100081B010008B92C0008C7
:1000E0001B0100081B0100081B010008DFF80CD0F1
:1000F00000F018F8004800479549000848270020FC
:100100000648804706480047FEE7FEE7FEE7FEE7B1
:10011000FEE7FEE7FEE7FEE7FEE7FEE7792B0008D5
:10012000ED0000081CB509480090094801900546FB
:10013000009C06E0E06840F0010394E8070098475F
:100140001034AC42F6D3FFF7D5FF0000FC73000873
:100150001C740008FEE7000042F24010C2F20000EA
:1001600000F08EB842F28410C2F2000000F088B8AD
:1001700070470000EFF3108072B600BFFEE700008A
:10018000014690F82100022816D10868D1E90FC372
:10019000026822F00E020260026822F00102026090
:1001A000012000FA03F2CCF8042081F8210000209D
:1001B000002281F82020704704208863012000225B
:1001C00081F820207047000090F82110022923D1E7
:1001D000026840F2040C1168C4F2020C21F00E0116
:1001E000116013682F21C4F202018A4223F0010337
:1001F000136015DD3023C4F202039A421CD044235D
:10020000C4F202039A421BD05823C4F202039A425A
:100210001CD14FF4803321E0042181630120704719
:100220000823C4F202039A420ED01C23C4F2020334
:100230009A420BD1102311E04FF480730EE000BFFF
:100240004FF480530AE000BF012307E00CF168017E
:100250004FF080738A4208BF4FF480130121CCF81D
:10026000003080F82110416B0022002980F8202006
:1002700004BF0020704780B58847002080BD000083
:1002800010B5D0E90FCE0168DCF800300A6823FA17
:100290000EF35C072AD512F0040427D00A689206F0
:1002A00003D40A6822F004020A602F22C4F2020278
:1002B000914240F20402C4F202025BDD3023C4F238
:1002C0000203994272D04423C4F20203994273D0CC
:1002D0005823C4F20203994240F07A804FF48023FD
:1002E0001360C16A002940F098806FE09C0727D511
:1002F00012F0020424D00A68920606D40A6822F09A
:100300000A020A60012280F821202F22C4F2020290
:10031000914240F20402C4F202023BDD3023C4F2F7
:100320000203994260D04423C4F2020399425FD091
:100330005823C4F20203994260D14FF4003365E0C0
:100340001B0743D512F0080208BF10BD0A6822F04F
:100350000E020A60012101FA0EF2CCF8042081633A
:1003600080F82110016B0022002980F8202054D150
:100370002CE000BF0823C4F20203994222D01C23C0
:10038000C4F20203994223D140231360C16A0029B9
:1003900043D11BE00823C4F2020399422CD01C2352
:1003A000C4F20203994229D120232FE04FF4806345
:1003B0001360C16A89BB09E04FF480431360C16ACE
:1003C00059BB03E004231360C16A31BB10BD00BFF9
:1003D00002F168044FF08063A14208BF4FF480032C
:1003E0001360C16AC9B9F1E74FF400730EE000BFB2
:1003F0004FF400530AE000BF022307E002F1680453
:100400004FF00073A14208BF4FF400131360816ADC
:100410000022002980F82020D8D0BDE810400847ED
:10042000014600284FF0010008BF70472DE9F04356
:10043000D1F800C04FF6F873CBF6FD734CF6CD4201
:100440006344CCF6CC42A3FB02236FF0030202EA22
:1004500093020023C4F2020301F10C08C1E90F3238
:100460000222D1E9019E98E8F00181F82120DCF810
:10047000002043F6F0739A4342EA090242EA0E0270
:1004800022432A4332433A4342EA0802CCF800208E
:1004900000228A6381F8210081F820200020BDE835
:1004A000F043704790F820C0BCF1010F04BF022058
:1004B0007047F0B54FF0010E80F820E090F821C0B1
:1004C000BCF1010F26D14FF0020C80F821C04FF093
:1004D000000CC0F838C0D0E900C4C56AC66BDCF8AF
:1004E0000070102C27F00107CCF80070006C0EFA99
:1004F00000F070600846CCF8043004BF10460A468D
:10050000CCF80800CCF80C20DCF8000045B140F035
:100510000E000DE0002180F820100220F0BD00BF89
:1005200020F00400CCF80000DCF8000040F00A00E5
:10053000CCF80000DCF8000040F00100CCF800002E
:100540000020F0BDB0B5044600F024F9054640F2A5
:100550000000C2F200000078611C18BF044400BF14
:1005600000F018F9401BA042FAD3B0BD2DE9F04FBE
:1005700082B00E68002E00F0FD8041F20042C4F20D
:100580000102042340F2004E904208BF03234FF6BD
:10059000FF7CC4F2010E009300240123C1F2100C71
:1005A0004FF0000A4FF000094BE000BF41F200029B
:1005B000C4F20102009F904208BF022704F00C031E
:1005C0000F229A402BEA020207FA03F34FEA9A0538
:1005D0001A4346F825204E6840F20C45F202DEF838
:1005E000082054BF22EA080242EA0802C4F20105C8
:1005F000CEF808202A68B30254BF22EA080242EA71
:1006000008022A60B303DEF8042054BF22EA08027D
:1006100042EA0802F303CEF80420DEF800204FF08F
:10062000010354BF22EA080242EA0802CEF8002081
:100630000E680AF1010A36FA0AF204F1040400F025
:10064000998003FA0AFB16EA0B08F1D04E6866455A
:1006500012DC122E56D8DFE806F0350B4D49555501
:10066000555555555555555555555545510000BF8E
:10067000D1F80C9046E000BF4FF6FF72C1F22102A4
:1006800096420FDC0022C1F2110296421AD00022DB
:10069000C1F21202964215D00022C1F22102964206
:1006A00010D02FE00022C1F2220296420AD000228E
:1006B000C1F23102964205D00022C1F232029642C6
:1006C00020D100BF8A684AB1012A14BFC0F814B013
:1006D000C0F810B04FF0080914E000BF4FF0040953
:1006E00010E000BFCA6802F104090BE04FF00009F6
:1006F00008E000BFCA6802F1080903E0CA6802F115
:100700000C0900BF02462646B8F5807F24BF04329C
:10071000203E17680F25B54027EA050509FA06F6B9
:1007200035431560CA79D2067FF582AF41F21803CE
:10073000C4F202031A68AEF57E7642F001021A6036
:100740001A6802F001020192019A2AF0030256F897
:1007500002B040F60002C4F20102904208D040F616
:100760000042C4F2010290427FF420AF012725E746
:10077000002723E702B0BDE8F08F00008068084042
:1007800018BF012070470000002A08BF090401615A
:100790007047000042F24030C2F20000006870472B
:1007A00040F2000042F24031C2F20000C2F2000109
:1007B00000780A68104408607047000080B542F273
:1007C0000000C4F20200016841F010010160032042
:1007D00000F094F80F2000F005F800F027F8002052
:1007E00080BD000070B540F20006C2F2000640F283
:1007F00008013278C2F200014FF47A730968B3FB42
:10080000F2F20446B1FBF2F1084600F019FE0F2C9B
:100810004FF0010508D838B94FF0FF3021460022CB
:10082000002500F03FF87460284670BD80B582B0A6
:1008300041F21800C4F202000168002241F00101F7
:100840000160016801F0010101910199416841F0E5
:10085000805141604068002100F080500090009875
:10086000052000F01FF8052000F00AF80420C4F26B
:1008700001000168022262F31A61016002B080BDCA
:10088000002848BF704700F01F01012202FA01F161
:100890001C2202EAD0004EF20012CEF20002815079
:1008A0007047000010B54EF60C5CCEF2000CDCF880
:1008B0000030C3F3022E8EF00704042C28BF04245A
:1008C000BEF103034FF0FF3E0EFA04F438BF0023DD
:1008D000A14399400EFA03F39A43114300F00F022B
:1008E00000F160430901043A03F5644362440028BF
:1008F00048BF02F10C03197010BD00004EF60C51F8
:10090000CEF200010A684FF6FF031A4060F30A2294
:1009100042F0806040F0FD7008607047002804BF1E
:10092000012070472DE9F04381B042F20008C4F283
:1009300002080446D8F800000D4600F00700814286
:100940000CD9D8F8000020F007002843C8F80000B0
:10095000D8F8000000F00700A8426CD1206841F2EE
:1009600004098107C4F2020917D5410705D5D9F852
:10097000001041F4E061C9F80010010705D5D9F86D
:10098000001041F46051C9F80010D9F80010A268B5
:1009900021F0F0011143C9F80010C00742D1D8F886
:1009A000000000F0070085420CD2D8F8000020F0CB
:1009B00007002843C8F80000D8F8000000F007003E
:1009C000A84238D12068410707D5D9F80010E2685D
:1009D00021F4E0611143C9F80010000708D5D9F8E7
:1009E0000000216920F4605040EAC100C9F800000D
:1009F000D9F8002002F00C00082841F20020C0F2D3
:100A00007A004DD147F2EA33C2F38341C0F60003C6
:100A1000595CD20338D440F60010C0F23D00484380
:100A20003EE000BF606859F8041C022808D0012885
:100A300026D1890306D4012001B0BDE8F08300BFB0
:100A40008901F8D5D9F8001021F003010843C9F84D
:100A50000000FFF79FFE064641F28837D9F80000F4
:100A6000616800F00C00B0EB810F98D0FFF792FEA8
:100A7000801BB842F2D9032001B0BDE8F08300BF6B
:100A80008907D8D5DEE700BFD9F8002045F2A033AA
:100A9000C2F34042C0F600039A5C4843B0FBF2F058
:100AA000D9F8001045F28832C1F30311C0F60002F4
:100AB000515C40F2080220FA01F140F20400C2F257
:100AC00000000068C2F200021160FFF78BFE0020F8
:100AD00001B0BDE8F083000040F2080041F20401DB
:100AE000C2F20000C4F202010068096845F29832BF
:100AF000C1F30221C0F60002515CC84070470000FB
:100B000040F2080041F20401C2F20000C4F2020106
:100B10000068096845F29832C1F3C221C0F60002AC
:100B2000515CC84070470000002804BF0120704796
:100B30002DE9F04182B00446007841F20006C0077A
:100B4000C4F202060CD0706800F00C00042840F0DB
:100B500081803068800303D56068002800F04681FA
:100B6000207880071BD5706810F00C0F09D07068D2
:100B700000F00C00082840F087807068C00300F186
:100B800083803068800703D52069012840F02E81DA
:100B90003068616920F0F80040EAC10030602078D8
:100BA000000713D4207840072CD4E569002D00F00D
:100BB0001881706800F00C00082840F0A780012D13
:100BC00040F00481012002B0BDE8F081A069002856
:100BD00000F084800020C4F242200121C0F880147B
:100BE000FFF7D8FD054600BF706A800700F1B280AC
:100BF000FFF7D0FD401B0228F6D9032002B0BDE864
:100C0000F08100BFF0695FEAC00808D4F06940F0E5
:100C10008050F061F06900F080500090009847F239
:100C20000007C4F200073868C00549D4386840F4AA
:100C300080703860FFF7AEFD054600BF3868C0051C
:100C40003ED4FFF7A7FD401B6428F7D9032002B06C
:100C5000BDE8F081706800F00C00082803D17068CE
:100C6000C0033FF576AF61683068002900F00C8161
:100C7000B1F5A02F00F00081B1F5803F40F01A815E
:100C800040F480301CE100BF2069002840F20000E1
:100C9000C4F2422000F0888001210160FFF77AFD54
:100CA000054600BF306880073FF572AFFFF772FD61
:100CB000401B0228F6D9032002B0BDE8F08100BF36
:100CC000E168306A002900F09D80052900F09280DB
:100CD000012940F0AF8040F00100B1E00020C4F2F3
:100CE00042200021C0F88014FFF754FD054600BFE4
:100CF000706A80077FF556AFFFF74CFD401B022856
:100D0000F6D9032002B0BDE8F08100BF0027C4F28D
:100D1000422700203866FFF73DFD022D05460DD124
:100D20003068800140F1DE80FFF734FD401B02286F
:100D30004FF00300F4D902B0BDE8F08130688001C3
:100D40004FD5FFF727FD401B02284FF00300F5D9D0
:100D5000F1E700BF40F20800C2F20000006844F66C
:100D6000D351C1F26201A0FB0101480A019000BF0A
:100D700000BF0198411E002801913FF413AF00BF4E
:100D80000198411E002801913FF40CAF00BF01986B
:100D9000411E002801913FF405AF00BF0198411E9C
:100DA00000280191E4D1FDE600210160FFF7F2FC8B
:100DB000054600BF306880077FF5F1AEFFF7EAFC1B
:100DC000401B02284FF00300F4D9B4E77068216A91
:100DD00000F480328A4209D1616A00F470108842BE
:100DE00004D1002002B0BDE8F08100BF012002B0B4
:100DF000BDE8F08140F004003062306A40F001004C
:100E00001EE000BF20F001003062306A20F00400D4
:100E10003062FFF7BFFC054641F28837306A800731
:100E200020D5FFF7B7FC401BB8424FF00300F5D9BF
:100E300081E700BF20F001003062306A20F004003A
:100E40003062FFF7A7FC054641F28837306A800719
:100E500008D4FFF79FFC401BB842F7D9032002B02B
:100E6000BDE8F081B8F1000F3FF59FAEF06920F0CA
:100E70008050F06199E600BF40F480203060306817
:100E800040F480301CE000BF20F4803030603068D7
:100E900020F480203060FFF77DFC05463068800339
:100EA0007FF55EAEFFF776FC401B64284FF0030031
:100EB000F4D940E720F480303060306820F480209E
:100EC0003060FFF767FC0546306880033FF548AEA9
:100ED000FFF760FC401B6428F6D9032002B0BDE890
:100EE000F08100BF206AB0F5803F05D17168A2682B
:100EF00021F40031114371607168626A21F4741148
:100F000011430843706001203866FFF743FC044634
:100F1000306880013FF565AFFFF73CFC001B0228FD
:100F20004FF00300F4D906E770470000B0B584B075
:100F300001684A688B6803F04105012D08D112F061
:100F4000400505D0016C04B0BDE8B040084700BFC3
:100F50009D0707D512F0800504D0416C04B0BDE8B0
:100F6000B040084713F0600F18BF12F0200501D100
:100F700004B0B0BD5D0618D590F85150032D09D1CD
:100F800000200290C868029088680290029804B01D
:100F9000B0BD00BF456D45F00405456500250395CE
:100FA000CD6803958D680395039D9B060CD5436D15
:100FB00043F001034365002301938B6801930B68A1
:100FC00023F040030B60019B436D002BD0D04B6896
:100FD000920723F0E0034B604FF0010380F851309B
:100FE00026D04A6842F6490422F003024A60C16CE6
:100FF000C0F6000459B1054608464C63FFF7E4F813
:101000000146284619B1416D41F040014165816CAE
:101010000029ADD04C6304460846FFF7D5F80028F8
:10102000A6D0606D40F04000606504B0B0BD00BF68
:1010300004B0BDE8B040FFF777BF000070B528B13D
:10104000416A29B100210161142106E0012070BD2F
:101050004168B1F5827F02D01C2100224250002657
:10106000866290F8511029B980F85060054600F06A
:1010700039F82846022180F8511090E82E0002F439
:1010800082720C6803F4044324F040040C601A4498
:1010900005F4006305691A4405F0020345691A4422
:1010A00005F001038569C4691A4405F400731A4404
:1010B00004F03803046A1A4404F08003846A1A4373
:1010C00004F400531A430A60042202EA15424A60FB
:1010D000CA6922F40062CA610121466580F8511094
:1010E000304670BD2DE9F04186B040F6000504465B
:1010F000C4F20105006805F52051002788420597D4
:10110000CDE90377029703D006B0BDE8F08100BFB8
:1011100041F21800C4F20200016802AE41F48051AD
:101120000160016840F21C0801F4805101910199AD
:101130000168C4F2020841F0040101600068314610
:1011400000F0040001900198A0200290022003907A
:10115000032005902846FFF709FA4020CDE9020751
:10116000284631460497FFF701FA42F24015C2F2D1
:10117000000580262846C5E90087C5E90276C5E94D
:101180000477C5E90677FFF74BF9002818BFFEF78B
:10119000F1FFE5646C6242F2841508F11400C2F2BA
:1011A00000051021002285E847002846C5E90422F1
:1011B000C5E90622FFF734F9002818BFFEF7DAFF69
:1011C000232000210022A5646C62FFF76BFB232023
:1011D000FFF756FB06B0BDE8F08100007047000045
:1011E0007047000070B590F85150012D08D10029CA
:1011F0004FF0010C18BF002A0ED1604670BD00BF31
:101200004468B4F5827F0DD1042D4FF0020CF4D167
:101210008568002DEBD0F0E7002BEED090F8505011
:10122000012D01D1022070BD012580F8505090F8A9
:1012300051500024042D1CBF052580F851504465F1
:1012400001638386C38682638387C387C0E91044B2
:1012500090F8511042F6750342F68506C0F6000379
:10126000C0F600060568D0F84CC0042908BF1E4629
:1012700042F68D0142F6CD13C0F60001C0F6000320
:1012800008BF0B4642F65501C0F60001CCE90A360C
:10129000CCE90C14C38F064605F10C016046FFF73C
:1012A00001F938B1706D40F010007065012086F8CA
:1012B000504070BD3568B06C696805F10C0241F0B2
:1012C00001016960C0E90A44C0E90C44316BF38E46
:1012D000FFF7E8F840B1706D40F010007065002035
:1012E00086F85000012070BD306835460168490617
:1012F00003D4016841F0400101604FF0000C85F813
:1013000050C0416841F020014160416841F0020154
:101310004160604670BD000090F85130012B0BD148
:1013200000294FF0010318BF002A01D11846704769
:1013300090F85030012B03D102231846704700BFAC
:10134000B0B5012380F85030032380F851300023DA
:10135000436501638286C2868363C0E91033838755
:10136000C38784680268B4F5004F07D1146824F07D
:1013700040041460146844F480441460D0F848C0F9
:1013800042F67D0E42F6391442F65505C0F6000EBF
:10139000C0F60004C0F60005CCE90A4ECCE90C53B7
:1013A000C38E04460C326046FFF77CF860B1606D76
:1013B000012340F010006065002084F85000BDE873
:1013C000B0401846704700BF20680168490603D442
:1013D000016841F040010160002384F85030416809
:1013E00041F020014160416841F002014160BDE8E7
:1013F000B040184670470000006843F20001C4F294
:101400000101884218BF704740F27000C2F200002C
:10141000012101707047000070470000006843F22E
:101420000001C4F20101884218BF704740F2700009
:10143000C2F20000012101707047000070470000F7
:10144000411E0020B0EB116F1CBF012070474EF20F
:101450001002CEF2000251604EF62351CEF200018E
:10146000F0230B70072190601160704770470000F7
:101470007047000090F83C20012A04BF022070470A
:10148000B0B501F108053CCDD1E900CE23F47C5381
:1014900022F470521A432EF4F0431A432CF4E04322
:1014A0001A4324F4C0431A432A43C96922F48042F0
:1014B000036811435964002180F83C100020B0BD3E
:1014C00090F83C20012A4FF0020236D010B580F887
:1014D0003D200268D2F804E0D2F808C00C682EF073
:1014E0007003234340F2FF74C4F20004A24253602D
:1014F0000ADCB2F1804F13D040F20043C4F2000383
:101500009A420DD011E000BF42F60043C4F201033D
:101510009A4205D040F60003C4F200039A4204D177
:1015200049682CF08003194391600121002280F862
:101530003D1080F83C20BDE8104010467047000088
:10154000002804BF0120704710B590F83D1031B954
:10155000002180F83C10044600F070F8204602217B
:1015600080F83D10016840F2FF740B68C4F200047B
:1015700042F6004CA142C4F2010C15DCB1F1804FDF
:101580001AD040F20042C4F20002914214D0A142AB
:1015900018DCB1F1804F1DD040F20042C4F20002CD
:1015A000914217D01AE000BF614505D040F6000215
:1015B000C4F200029142EAD1826823F0700313431F
:1015C000A142E6DD614505D040F60002C4F200020A
:1015D000914203D1026923F440731343846923F0D9
:1015E0008002D0F804E0C368224361450A60CB6200
:1015F000C1F828E002D14269CCF8302001224A61CA
:101600000B69DB0703D00B6923F001030B6180F842
:10161000462080F83E2080F83F2080F8402080F867
:10162000412080F8422080F8432080F8442080F850
:10163000452080F83D20002010BD000010B582B08C
:101640000068B0F1804F17D042F60041C4F20101AA
:1016500088422BD141F21800C4F202000168002236
:1016600041F4006101600068002100F40060019015
:1016700001981920192410E041F21800C4F2020068
:101680004168002241F0010141604068012100F001
:101690000100009000981C201C24FFF703F920464D
:1016A00002B0BDE81040FFF7EBB800BF02B010BDBC
:1016B00090F83D1001291CBF01207047022180F8DD
:1016C0003D10006840F2FF72C168C4F2000290420F
:1016D00041F00101C16009DCB0F1804F12D040F24D
:1016E0000041C4F2000188420CD012E042F60041F1
:1016F000C4F20101884205D040F60001C4F20001A5
:10170000884206D1816801F00701062904BF002044
:101710007047016841F0010101600020704700003E
:101720000146006841F21113C26822F00102C26052
:10173000026A1A4204D00122002081F83D2070473D
:10174000026A40F244431A42F5D1026822F00102D3
:1017500002600122002081F83D20704790F83C2073
:10176000012A4FF002026CD080B580F83D20D0F8FD
:1017700000C04FF67772DCF8083023EA0202CCF89A
:1017800008200B684F2B29DC1F2B45DD202B46D072
:10179000302B44D0402B40F0AF80D1F804E0C96832
:1017A000DCF82030DCF8202022F00102CCF82020E8
:1017B000DCF8182022F0F00242EA011123F00A02BC
:1017C00042EA0E02CCF81810CCF82020DCF8081001
:1017D00041F0470121F0300128E000BF6F2B33DDDD
:1017E000B3F5005F74D0B3F5805F21D0702B40F06B
:1017F0008380D1E901E3C968DCF8082043EA0E03DD
:1018000022F47F4243EA01211143CCF80810DCF8AE
:10181000081041F0770109E00BB1102B6CD1DCF816
:10182000081021F07001194341F00701CCF80810AD
:101830000022012180F83D10002180F83C10BDE815
:1018400080401046704700BF502B21D0602B53D1F1
:10185000D1F804E0C968DCF82030DCF8202022F060
:101860001002CCF82020DCF8182022F4704242EA62
:10187000013123F0A00242EA0E12CCF81810CCF885
:101880002020DCF8081041F0670121F01001CDE7BD
:10189000D1F804E0C968DCF82030DCF8202022F020
:1018A0000102CCF82020DCF8182022F0F00242EAF5
:1018B000011123F00A0242EA0E02CCF81810CCF80B
:1018C0002020DCF8081041F0570121F02001ADE79D
:1018D000D1E901E3C968DCF8082043EA0E0322F4E9
:1018E0007F4243EA01211143CCF80810DCF80810CC
:1018F00041F480419AE700BF01229AE7002804BF23
:10190000012070472DE9F04F81B090F83D2042B999
:10191000002280F83C2004460D4600F09DF8294640
:101920002046022280F83D20026844F207059368B1
:1019300042F6004CAB43936040F2FF731468C4F26C
:1019400000039A42C4F2010C14DCB2F1804F19D0AA
:1019500040F20045C4F20005AA4213D09A4217DCB7
:10196000B2F1804F1CD040F20043C4F200039A420F
:1019700016D01AE0624505D040F60005C4F2000515
:10198000AA42EBD1856824F070042C439A42E7DD2B
:10199000624505D040F60003C4F200039A4204D128
:1019A000036924F4407543EA050424F08003846944
:1019B000D0F804E0C568234362451360D562C2F8DD
:1019C00028E002D14369CCF830304FF0010EC2F864
:1019D00014E01569ED0703D0156925F001051561BF
:1019E00095689469D2F820C0D1E90038D1E9027B2A
:1019F00043EA050A8D694FF6FF7924EA090447EAAC
:101A000005254FF6FC47BD43D1E9077644EA0B04B0
:101A10000B692C4344EA07242CF02207496944EA65
:101A2000031347EA080743EA063347EA0111C2F8FD
:101A300008A09361116280F846E080F83EE080F8EB
:101A40003FE080F842E080F843E080F83DE000208D
:101A500001B0BDE8F08F000010B586B0006840F618
:101A60000002C4F20002002190420591CDE9031169
:101A7000029137D040F20041C4F2000188425BD1AC
:101A800041F21800C4F20200416841F002014160D5
:101A9000416801F0020101910199016841F00801DA
:101AA0000160006802A900F0080001900198302050
:101AB00002900020CDE9030040F60040C4F201008E
:101AC000FEF754FD0420C4F2010001684FF2FF321A
:101AD000CFF6FF02114041F0E06141F40061016086
:101AE0001D2421E041F21800C4F20200426842F0D5
:101AF00004024260426802F004020192019A026804
:101B000042F008020260006800F0080001900198AD
:101B1000C020CDE9020140F600400491C4F201006A
:101B200002A9FEF723FD1E24204600210022FEF715
:101B3000B9FE2046FEF7A4FE06B010BD70470000B7
:101B400070B504460068C5680669B10716D515F07A
:101B5000020113D06FF00201016101212177806938
:101B6000800703D02046FFF7E9FF05E0204600F09C
:101B7000BBF8204600F03CFA00202077700719D50A
:101B800015F0040016D020686FF0040101610221F5
:101B90002177806910F4407F04D02046FFF7CEFF04
:101BA00006E000BF204600F09FF8204600F020FA33
:101BB00000202077300717D515F0080014D02068D2
:101BC0006FF00801016104212177C069800703D00B
:101BD0002046FFF7B3FF05E0204600F085F82046D9
:101BE00000F006FA00202077F00619D515F0100055
:101BF00016D020686FF01001016108212177C069BB
:101C000010F4407F04D02046FFF798FF06E000BFA5
:101C1000204600F069F8204600F0EAF9002020771D
:101C2000F00718BF15F0010002D1300609D412E008
:101C300020686FF001010161204600F049FA30068A
:101C400009D515F0800006D020686FF08001016191
:101C50002046FFF70BFC700609D515F0400006D0B2
:101C600020686FF040010161204600F061FAB00683
:101C700058BF70BD15F0200008D021686FF0200219
:101C800020460A61BDE87040FFF7F2BB70BD00005E
:101C900080B586B0014640F60000C4F20100096834
:101CA00000F5105291424FF00001CDE90411CDE949
:101CB000021101D006B080BD41F21801C4F2020148
:101CC0000A6842F004020A60096801F00401019107
:101CD00001994FF44071029102210391059102A9EB
:101CE000FEF744FC06B080BD7047000090F83C3021
:101CF000012B04BF022070474FEAB202032A00F210
:101D0000F1802DE9F043DFE802F003A53B7500BF49
:101D1000036842F600461D6A1A6AC4F2010622F000
:101D200001021A621A465C6852F818CFB3428E68F4
:101D3000D1F800E025F0020545EA06050CD1CE6891
:101D4000D1E9057824F4407425F00C0526F004064A
:101D50003C43354344EA08042CF0730747EA0E0776
:101D60005C609F614F6809695F631D629F6947F00E
:101D700008079F619F6927F004079F61A6E000BFE5
:101D8000036842F600461D6A1A6AC4F2010622F48C
:101D900080721A621A46D3F804C052F81CEFB3429C
:101DA0008E680C6825F4007545EA06250FD1CE68CB
:101DB000D1E90598360240F2FF4725F44065BE435D
:101DC00035432CF4405748EA090647EA061C2EF032
:101DD00073072743C3F804C0DF614F680969DF63F5
:101DE0001D62DF6947F00807DF61DF6927F004073C
:101DF000DF616BE0036842F60047D3F820C01A6A3F
:101E0000C4F2010722F480521A621A465C6852F842
:101E10001C5FD1F800E08E68BB4204D14F6924F406
:101E2000804444EA87142CF4005747EA063725F427
:101E3000E64646EA0E265C60DE614E6809691E646D
:101E40001F62DF6947F40067DF61DF6927F480679D
:101E5000DF613AE0036842F600461D6A1A6AC4F27E
:101E6000010622F010021A621A46D3F804C052F892
:101E7000184FB3428E68D1F800E025F0200545EAFE
:101E800006150FD1CE68D1E905986FF0400725F00F
:101E9000C00507EA061635432CF4406748EA0906F0
:101EA00047EA860C24F4E64444EA0E27C3F804C04B
:101EB0009F614F6809699F631D629F6947F40067CE
:101EC0009F619F6927F480679F6109021368194326
:101ED00011600021BDE8F043002280F83C20084654
:101EE000704700BF0121002280F83C20084670475F
:101EF000002804BF0120704710B590F83D1031B99B
:101F0000002180F83C10044600F070F820460221C1
:101F100080F83D10016840F2FF740B68C4F20004C1
:101F200042F6004CA142C4F2010C15DCB1F1804F25
:101F30001AD040F20042C4F20002914214D0A142F1
:101F400018DCB1F1804F1DD040F20042C4F2000213
:101F5000914217D01AE000BF614505D040F600025B
:101F6000C4F200029142EAD1826823F07003134365
:101F7000A142E6DD614505D040F60002C4F2000250
:101F8000914203D1026923F440731343846923F01F
:101F90008002D0F804E0C368224361450A60CB6246
:101FA000C1F828E002D14269CCF8302001224A6110
:101FB0000B69DB0703D00B6923F001030B6180F889
:101FC000462080F83E2080F83F2080F8402080F8AE
:101FD000412080F8422080F8432080F8442080F897
:101FE000452080F83D20002010BD00007047000013
:101FF00070470000C1B1042908D0082914BF41224C
:102000004022825C012A05D016E000BF3F22825C9C
:10201000012A11D10222082910D0042914BF80F806
:10202000412080F83F200BE090F83E20012A03D1A8
:10203000022280F83E2003E00120704780F8402013
:10204000006801F01F010122036A8A4023EA0201AD
:102050000162036A42F64441C4F201011A43A1F14C
:102060004403984202620FD040F2FF71C4F20001B3
:10207000884213DCB0F1804F1CD040F20041C4F222
:102080000001884216D01CE00A6842F400420A604F
:1020900040F2FF71C4F200018842EBDD42F60041DC
:1020A000C4F20101884205D040F60001C4F20001EB
:1020B000884206D1816801F00701062904BF00208B
:1020C0007047016841F00101016000207047000085
:1020D00010B540F22004C2F2000404F10801884265
:1020E00000D010BDD4E90010421C626021B1C728A5
:1020F00012D0132805D0F4E7C7280DD0082818BF40
:1021000010BD40F60000C4F201004FF4006100224F
:10211000BDE81040FEF738BB40F60000C4F20100F5
:102120004FF400610122FEF72FFB0020606010BD1C
:10213000704700007047000070470000B0B582B0E3
:1021400001680A68CC684B6902F02F05202D04F065
:10215000200505D125B102B0BDE8B04000F02CBD8E
:102160005FEA027C1EBF03F0010E04F4907313EBD0
:102170000E0341D1036BD50618D5012B16D114F0EF
:10218000100313D0002201920A6801924A6801925A
:10219000019A496949064BD4818DC28DC38D002BAC
:1021A00018BF914240F0F48102B0B0BD13062DD5A6
:1021B00014F080032AD090F84120212AF4D18268BB
:1021C000B2F5805F03D10269002A00F06782026ADB
:1021D000531C036212784A60C28C013A1304C28411
:1021E000E2D1C86820F08000C860C86840F04000B4
:1021F000C86002B0B0BD00BFD30718BF14F480732D
:1022000040F0D080530700F1D380D8E05206CBD500
:1022100014F04002C8D0CA6822F04002CA602021EF
:1022200080F8411002B0BDE8B04000F0FBBA00BF3A
:10223000C16B0A68526893B2002BB5D0858DAB4252
:10224000B2D2C2858969202900F0A180016851E8D5
:10225000031F026821F4807142E80313DBB10168B7
:1022600051E8031F026821F4807142E8031393B11F
:10227000016851E8031F026821F4807142E80313EA
:102280004BB1016851E8031F026821F4807142E8F4
:102290000313002BDAD1016851E8051F026821F011
:1022A000010142E80513C3B3016851E8051F026844
:1022B00021F0010142E805137BB3016851E8051FD5
:1022C000026821F0010142E8051333B3016851E8C7
:1022D000051F026821F0010142E80513002BDAD145
:1022E0001BE000BF016851E8051F026821F04001B2
:1022F00042E80513DBB1016851E8051F026821F0CF
:10230000400142E8051393B1016851E8051F0268D6
:1023100021F0400142E805134BB1016851E8051F67
:10232000026821F0400142E80513002BDAD1202198
:1023300080F8421000210163016851E8031F026820
:1023400021F0100142E80313DBB1016851E8031FDB
:10235000026821F0100142E8031393B1016851E8CB
:10236000031F026821F0100142E803134BB101681A
:1023700051E8031F026821F0100142E80313002B0B
:10238000DAD1C16B04460846FDF7FAFE2046022169
:102390004163818DC28D891A89B202B0BDE8B04017
:1023A000FFF7C8BE436C43F001034364530706D5EF
:1023B000BEF1000F03D0436C43F002034364930764
:1023C00006D5BEF1000F03D0436C43F00403436411
:1023D000BCF1000F06D55EEA050303D0436C43F061
:1023E00008034364436C002B3FF4DEAE920605D530
:1023F00025B1044600F0E0FB216820464969426CA3
:1024000001F0400102F00802891800F0B98000BF15
:10241000016851E8031F026821F4907142E8031338
:10242000BBB3016851E8031F026821F4907142E8D0
:10243000031373B3016851E8031F026821F490711C
:1024400042E803132BB3016851E8031F026821F42B
:10245000907142E80313002BDAD11AE0016851E8C9
:10246000051F026821F0010142E80513DBB1016894
:1024700051E8051F026821F0010142E8051393B1FC
:10248000016851E8051F026821F0010142E80513C7
:102490004BB1016851E8051F026821F0010142E8D3
:1024A0000513002BDAD1016B012924D1016851E811
:1024B000031F026821F0100142E80313DBB1016839
:1024C00051E8031F026821F0100142E8031393B1A1
:1024D000016851E8031F026821F0100142E803136C
:1024E0004BB1016851E8031F026821F0100142E876
:1024F0000313002BDAD1202180F842100021016360
:1025000001684969490640F1C380016851E8051F27
:10251000026821F0400142E80513DBB1016851E88F
:10252000051F026821F0400142E8051393B10168DC
:1025300051E8051F026821F0400142E805134BB144
:10254000016851E8051F026821F0400142E80513C7
:10255000002BDAD1C16B002900F09A8042F6AD322F
:10256000C0F60002044608464A63FDF72DFE002827
:102570003FF41AAEE06B416B02B0BDE8B0400847D3
:102580000446FFF7D9FD0020606402B0B0BD00BF73
:10259000891A00BF026852E8032F036822F4907280
:1025A00043E80325BDB3026852E8032F036822F411
:1025B000907243E8032575B3026852E8032F03685D
:1025C00022F4907243E803252DB3026852E8032FEA
:1025D000036822F4907243E80325002DDAD11AE053
:1025E000026852E8052F036822F0010243E805253E
:1025F000DDB1026852E8052F036822F0010243E8CA
:10260000052595B1026852E8052F036822F0010202
:1026100043E805254DB1026852E8052F036822F012
:10262000010243E80525002DDAD1202280F842205E
:1026300000220263026852E8032F036822F01002AE
:1026400043E80325DDB1026852E8032F036822F056
:10265000100243E8032595B1026852E8032F03688E
:1026600022F0100243E803254DB1026852E8032F1F
:10267000036822F0100243E80325002DDAD102227C
:1026800089B2426302B0BDE8B040FFF753BD00BF5E
:1026900002B0BDE8B040FFF74FBD00BF026A32F89C
:1026A000023B6FF35F234B60026295E5002804BF95
:1026B0000120704710B5044690F8410028B9002069
:1026C00084F84000204600F063F8242084F841009C
:1026D0002068D4E90212C36823F40053C36003697D
:1026E00023F440531A430261D4E904231143C2681E
:1026F000194341F20C639A431143C1604169A269D5
:1027000021F44071114343F60002C4F201029042E9
:10271000416103D0FEF7E0F902E000BFFEF7F0F9F7
:10272000D4E90023192148439900B0FBF1F048F2A5
:102730001F5CC5F2EB1CA0FB0C314FF69C734909E2
:10274000C0F6FF7301FB0300322303EB0010A0FB74
:102750000C03F02000EA531000EB0110C3F3431107
:10276000084490601069202120F490401061506965
:1027700020F02A005061D06840F40050D060002062
:10278000606484F8411084F84210606310BD00005A
:1027900070B586B040F60044C4F201040068A4F5A8
:1027A0004441002688420596CDE90366029601D091
:1027B00006B070BD41F21800C4F20200416802ADDB
:1027C00041F480214160416801F480210191019927
:1027D000016841F0080101600068294600F0080026
:1027E000019001984FF48060029002200390032032
:1027F00005902046FDF7BAFE4FF40060CDE90206D1
:10280000204629460496FDF7B1FE2720002100222C
:10281000FEF748F82720FEF733F806B070BD000039
:102820007047000070470000FEE70000FEE7000070
:10283000FEE70000704700007047000042F2C81039
:10284000C2F20000FEF772BB406A0021C187C18658
:10285000FEF76ABB406A01684A6822F003024A60D8
:10286000416D41F010014165012180F85110FEF7E2
:102870005BBB0000406AFEF7B3BC0000406AFEF795
:10288000CBBD0000406AFEF7D9BD0000B0B582B0F4
:10289000446A0546FDF77EFF29680968890645D424
:1028A00084462068A168426822F02002426049B94B
:1028B0006268B2F5827F05D1416821F00301416071
:1028C00018E000BF426822F0010242606268B2F57F
:1028D000827F0FD1B1F5004F02D0B1F5806F09D1E1
:1028E0000268B1F5806F22F04002026002D12046FA
:1028F000012101E02046802100226423CDF800C0A0
:1029000000F0A6F828B1606D40F02000606520203E
:1029100060650020E087012084F85100606D28B1D7
:10292000204602B0BDE8B040FEF7FEBA204602B035
:10293000BDE8B040FEF752BCB0B582B0446A05466F
:10294000FDF728FF29680968890639D405462068FB
:1029500001224168642321F020014160416821F097
:102960000201416020460221009500F071F838B95B
:102970002046802100226423009500F069F838B1D8
:10298000606D40F020006065606D40F02000606583
:10299000A06838B9002001902068C1680191806862
:1029A000019001980020E086012084F85100606DBC
:1029B00030B1204602B0BDE8B040FEF7B5BA00BF66
:1029C000204602B0BDE8B040FEF716BDB0B582B0FB
:1029D000446A0546FDF7DEFE29680968890631D498
:1029E0000546206801224168642321F020014160EE
:1029F00020460221009500F02BF838B920468021AE
:102A000000226423009500F023F838B1606D40F097
:102A100020006065606D40F02000606520684168BE
:102A200021F0030141600020E086E087012084F866
:102A30005100606D30B1204602B0BDE8B040FEF7F5
:102A400073BA00BF204602B0BDE8B040FEF7E6BC56
:102A50002DE9F04381B0089C984615460E46814604
:102A6000FDF798FE201A00EB0804FDF793FE40F2F4
:102A70000801C2F200010968C1F3CB316143009142
:102A8000D9F800108A683240921BB2FA82F25209D9
:102A900095423DD0074618F1010031D0FDF77AFE8E
:102AA000C01BA04238D2009800990028A1F1010172
:102AB0000091D9F80010896808BF044601EA0600B1
:102AC000801BB0FA80F040098542E7D120E000BFCA
:102AD00088683040801BB0FA80F04009854217D0EA
:102AE00088683040801BB0FA80F0400985420FD0E2
:102AF00088683040801BB0FA80F04009854207D0DA
:102B000088683040801BB0FA80F040098542DFD1F0
:102B1000002001B0BDE8F083D9E900014268B1F5B9
:102B2000827F22F0E00242600BD1D9F80810B1F5A3
:102B3000004F02D0B1F5806F03D1016821F0400150
:102B40000160D9F82810B1F5005F07D1016821F4C0
:102B500000510160016841F400510160012089F8D1
:102B60005100002089F85000032001B0BDE8F08337
:102B700070470000FDF714BE7047000040F22800C7
:102B8000C2F20000FEF7DCBF42F22020C2F20000D9
:102B9000FEF7D6BF42F26820C2F20000FEF7D0BFB7
:102BA00042F2B020C2F20000FEF7CABF406A002124
:102BB000C185C184FFF7C0BA81B090F842102229C4
:102BC00021D183680246B3F5805F09D152F8281FEE
:102BD00052F8183C002B63D003685B680AE000BF22
:102BE00052F8281F13B90369002BF5D003685B68FE
:102BF00003F07F030B70116801311160C18D013941
:102C00000A04C18502D001B0704700BF0168CA68DC
:102C100022F02002CA60CA6822F48072CA604A693F
:102C200022F001024A61202180F842100021416314
:102C3000026B012A3CD10163016851E8031F02685D
:102C400021F0100142E80313DBB1016851E8031FD2
:102C5000026821F0100142E8031393B1016851E8C2
:102C6000031F026821F0100142E803134BB1016811
:102C700051E8031F026821F0100142E80313002B02
:102C8000DAD101680A68D20606D5002200920A68E5
:102C90000092496800910099818D01B0FFF74ABA0E
:102CA000026852686FF35F2221F8022B8162A5E768
:102CB00001B0FFF7B5BD000042F2F820C2F20000FB
:102CC000FFF73CBAFEE7000010B5D8B1816BC9B17F
:102CD000C16BB9B1016CA9B1242101700321C2F209
:102CE000000181644169427A0029B2FA82F14FEA17
:102CF0005111C1720AD0044600F044FE80B140B2C6
:102D000010BD00BFFF2040B210BD00BF45F2A23190
:102D1000C0F600014161044600F034FE0028EED107
:102D200047F2A23147F2D532C0F60001C0F60002E8
:102D30002046C0E9081241F2081121830721A1763B
:102D400040F20C01C2F20001E165082184F8601034
:102D5000BDE8104000F0B8BB2DE9F041002818BFD5
:102D6000002903D14FF0FF30BDE8F0814EF6FC5250
:102D7000CEF20002136841F2040743F08073CEF2F2
:102D80000007136057F8042C40F2700542F001026E
:102D900047F8042C0022C2F200053A60696044F250
:102DA000B54142F6F166C0F6000144F2BD53C0F6EB
:102DB000000600F1380C40F60008C0F600038CE86D
:102DC0004A004FF4006140F64016C4F20108427216
:102DD0004260C18104464261C2F200068020307028
:102DE000404610212A70FDF7CFFC686840F240127F
:102DF000C2F2000231460223FEF7F4F940B9287806
:102E000030B9287820B9287810B928780028F6D069
:102E1000404610210122FDF7B7FC40F20801C2F242
:102E20000001386809684DF68362C4F21B32A1FBC9
:102E30000212910C4FF47A72514300BF3A68121A91
:102E40008A420BD23A68121A8A4207D23A68121A98
:102E50008A4203D23A68121A8A42EFD32046BDE86A
:102E6000F041FFF731BF0000B0B58EB0044600203E
:102E70008DF8040001A80121224600F0CDFB08B125
:102E80000EB0B0BD40F20C20C0F20120CDF806001B
:102E900001A801212246012500F0B4FF0028EFD14E
:102EA00001A8012122468DF8045000F0B5FB00284E
:102EB000E6D14FF40370ADF806004FF48040ADF852
:102EC0000A0001208DF8080001A80121224600F027
:102ED00099FF0028D4D14FF48070ADF802000DF1B5
:102EE00002000221224600F0C7FD0EB0B0BD000076
:102EF00041F2040140F20803CEF20001C2F20003E5
:102F00000A68D3F800C04DF68363C4F21B33ACFBF0
:102F1000033C4FEA9C43584309E000BF0B689B1AEF
:102F2000834228BF70470B689B1A834207D20B6805
:102F30009B1A834203D20B689B1A8342EED37047DD
:102F40002DE9F04FA5B003468DF8130000294FF08E
:102F5000FF0018BF002A03D140B225B0BDE8F08FB2
:102F6000107E834216D2906BD0B1D76BC7B1106C74
:102F7000B0B192F8470002910128039216D153682C
:102F80000DF113012F200122B847039A90724FF4DC
:102F9000E17014E0F62040B225B0BDE8F08F00BF2C
:102FA000FF2040B225B0BDE8F08F00BF53680DF19F
:102FB00013012F200122B847039A90720220516812
:102FC000126C9047039B987A20B1FE2040B225B046
:102FD000BDE8F08FD8890F2800F21A81DDF808C00B
:102FE000C1071CBF0138D8810CF101003022002438
:102FF0004FF0100805AF4FF0000A0090B3F80EB084
:103000005FFA88F65FFA8AF9B3450CEB09012FD90C
:103010009D6B002D5AD0D86B002857D0186C002813
:1030200054D0587A019100281046D97A08BF40F050
:1030300080005B6893468A19C0B23946A847039955
:103040008872039890F847200398012A41680398F2
:10305000036C4FF0020008BF4FF4E1709847039BE8
:10306000987A002844D0DDF808C0FE2091E000BF27
:103070009E6B6EB3D86B58B3186C48B3587A0D4634
:1030800000281046D97A08BF40F080005B6890465F
:1030900001EB0B02C0B23946B0470399887203981E
:1030A00090F847200398012A41680398036C4FF079
:1030B000020008BF4FF4E1709847039B987A08B369
:1030C000DDF808C0FE20424605AF02E0FF2004E024
:1030D000FF2093F80E80C244424400287FF43CAFA6
:1030E0004444E1B21029C4F110087FF487AF33E7FC
:1030F000DDF808C05FEA08604AD0042E0ED2002036
:103100002BE000BFDDF808C0BBF1000F05AF7BD09E
:10311000AE46BBF1040F3FD200205DE0009806F000
:10312000FC0E00EB0901002005AADD7A0F181544FA
:103130002D5C07F8015CDD7A154405446D780D546B
:10314000DD7A15440544AD787D70DD7A154405447B
:10315000ED7804308645BD70E7D116F0030117D035
:10316000DA7A05AD0244AA5C019E012932540BD0E3
:10317000DA7A471C3A44AA5C0229F25504D0D97A7B
:1031800002300144695C315400205A462F46A4E7BE
:1031900000205A4605AFA0E747F6FC700BEA000294
:1031A000009800EB09060020D97A35183944095CEB
:1031B00005F8011CD97A3944014449783154D97A47
:1031C0003944014489786970D97A39440144C9780D
:1031D00004308242A970E7D11BF0030114D0DA7ADF
:1031E00001290244BA5C0EF800200DD0DA7A461CA0
:1031F0003244BA5C02290EF8062005D0D97A023092
:103200000144795C0EF800100020424661E700BFDF
:1032100002993020102200F085F940B225B0BDE8B7
:10322000F08F000022B32DE9F04FA7B08146906BDC
:103230009046002800F03081D8F83C00002800F0CB
:103240003181B9F1000F4FF0FF0000F026818A466E
:10325000D8F84010002900F02081BAF1000F00F0EA
:10326000278198F847404FF0000B002002940CE0B3
:10327000FF2040B2704700BF0120414600F0F6FC3D
:103280000BF1010BD34500F008810BEB8B0519F80E
:103290002510042905D3012C03D10020414600F05C
:1032A000E5FC0106ECD109EB850E9EF8000009282B
:1032B00034D0292840F00281B8F848000021800667
:1032C000CDE905110491039154D498F81A100029FE
:1032D0004ED0D8F8240001EB4101A1F1090C8B1F5D
:1032E000CD1E0027C25D292A00F0AA80BD423CD035
:1032F000C619F278292A00F0A780BB4235D0B279EE
:10330000292A00F0A580BC452FD0727A292A00F026
:10331000A3800C37B942E5D127E000BF98F81A1016
:103320000020CDE909000890079009B3D8F82400DF
:1033300001EB4101A1F109028B1FCD1E0027C65DE3
:10334000092E49D0BD4210D0C619F478092C47D0B7
:10335000BB420AD0B479092C46D0BA4205D0747A5F
:10336000092C45D00C37B942E9D1029CF8208BE0FA
:10337000F82089E0D8F8387007AC4FB3D8F83C0093
:1033800030B3D8F8400018B398F80B0098F809103B
:10339000D8F80430421C00294FF01E002146754623
:1033A00008BF9E20B84788F80A0098F84700D8F868
:1033B0000410D8F8402001284FF0020008BF4FF455
:1033C000E170904798F80A0080B3029CFE205BE011
:1033D000029CFF2058E000BFCDF804E0C1190BE0CB
:1033E000CDF804E0F11C07E0CDF804E0B11D03E0E6
:1033F00006F10901CDF804E048788D7807A9424626
:10340000FFF79EFD029C00283ED107A8405D019A6F
:1034100000F001011171C0F340015171C0F380014E
:10342000C0F3C2009171D0712DE000BF98F80B007D
:10343000205C029C410648BF8038A88023E000BF82
:10344000CDF804E0C1190BE0CDF804E0F11C07E071
:10345000CDF804E0B11D03E006F10901CDF804E068
:1034600048788D7803A94246FFF76AFD029C58B957
:1034700003A8405D410652BF00F03F004FF6807147
:103480000843019988800020010606D1012C3FF4F1
:10349000F3AE0020F4E600BFFF2027B0BDE8F04FF8
:1034A00040B27047FF2027B0BDE8F04F40B27047F0
:1034B000002027B0BDE8F04F40B27047F82027B099
:1034C000BDE8F04F40B27047B0F8481089075EBFC2
:1034D000F82040B27047816BB1B1C16BA1B1016CF2
:1034E00091B110B586B029218DF8041001A90246CA
:1034F000084601211446FFF795FE48B106B0BDE825
:10350000104040B2704700BFFF2040B2704700BF7C
:10351000BDF80800A4F84400002006B0BDE8104043
:1035200040B270472DE9F041A0B05BB39D6B4DB345
:10353000DF6B3FB34FF0FF04F9B11F6CEFB188466A
:10354000597A6C46002908BF40F08000D97AD3F838
:1035500004C017460A4421461E466346A84796F80B
:1035600047207168336CB0720220012A08BF4FF403
:10357000E1709847B17A59B1FE2460B220B0BDE83D
:10358000F08100BFFF2460B220B0BDE8F08100BF31
:10359000E7B33046C446042F07F0030202D20023EB
:1035A0001EE000BF27F003010CF10105002300BF5E
:1035B000C77AEE182744FF5C06F8017CC77A2744D7
:1035C0001F447F78EF54C77A27441F44BF78777031
:1035D000C77A27441F44FF7804339942B770E7D174
:1035E000A2B1C17A012A1944615C0CF803100DD014
:1035F000C17A5F1C3944615C022A0CF8071005D0BF
:10360000C07A991C0844205C0CF80100002460B2C8
:1036100020B0BDE8F08100002DE9F04FA3B0EAB181
:103620001446926B002A00F08981E26B002A00F0B8
:103630008581024600284FF0FF0010D0236C73B143
:1036400094F847A0002900F07F81104600250DF175
:103650000C0B4FF00009CDE9012138E0FF2040B20A
:1036600023B0BDE8F08F00BF811948788D785946A6
:103670002246FFF765FC0028F1D1681CC0B21BF898
:1036800005101BF80000AA1C60F30A21E81CA8F82A
:103690000210D1B2C0B21BF801101BF800002A1DA5
:1036A00060F30A21681DD2B2C0B21BF802201BF8D9
:1036B0000000002560F30A22A8F80410A8F80620EC
:1036C000029809F101098145019800F03D813422F9
:1036D00009FB02F1415C09FB0208032901D8022918
:1036E0000AD1BAF1010F07D10020214600F0BEFA3D
:1036F0000028B4D198F8001009294FF0F800AED88E
:10370000DFE801F00846B80606060606068C00BF8C
:10371000A5E700BFA66B002E00F01081E06B00282B
:1037200000F00C81206C002800F00881E07A617ABA
:103730006368821C00294FF04000594608BFC02032
:10374000B047A07294F847006168226C01284FF0DE
:10375000020008BF4FF4E1709047A07A002840F0C3
:103760000B81E07A0BEB00011BF800004978C209DD
:1037700088F80420C0F3021200F00F0088F802005D
:1037800001F0030088F8032088F8050098E700BFDF
:10379000A66B002E00F0D280E06B002800F0CE80F7
:1037A000206C002800F0CA80E07A617A6368821C8D
:1037B00000294FF04200594608BFC220B047A0720E
:1037C00094F847006168226C01284FF0020008BF9E
:1037D0004FF4E1709047A07A002840F0CD80E07A65
:1037E0000BEB00011BF800004978C20988F804209F
:1037F000C0F3801288F80720C0F3011200F00F0018
:1038000088F80200C1F3C00088F8050001F0070045
:1038100088F8032088F8060052E700BF617ECDE9F2
:1038200005550029049503953FF419AF206A01EB73
:103830004101A1F1090C8B1FCD1E0026825D092AD2
:103840003FF412AFB54200F08B808219D778092F70
:103850006CD0B34200F084809779092F68D0B445CA
:1038600000F07E80577A092F64D00C36B142E5D142
:1038700076E000BFA66B002E60D0E06B00285DD024
:10388000206C00285AD0E07A617A6368421C0029D3
:103890004FF06B00594608BFEB20B047A07294F878
:1038A00047006168226C01284FF0020008BF4FF406
:1038B000E1709047A07A00285ED1E07A1BF80010F2
:1038C00008F10200C1F340110170214600F0E6FF4B
:1038D00000287FF4C4AEA66B86B3E06B70B3206C97
:1038E00060B3E07A617A6368421C00294FF04400BB
:1038F000594608BFC420B047A07294F847006168D9
:10390000226C01284FF0020008BF4FF4E17090478D
:10391000A07A88BBE07A1BF80000010900F00F00D4
:1039200088F8081088F80700CAE600BFD11C9CE69A
:10393000911D9AE602F1090197E600BFFF2040B20F
:1039400023B0BDE8F08F00BFBAF1010F0ED1012006
:10395000214600F08BF940B223B0BDE8F08F00BFE4
:10396000F82040B223B0BDE8F08F00BF002040B285
:1039700023B0BDE8F08F00BFFE2040B223B0BDE809
:10398000F08F0000002847D070B5A0B0846B002CE9
:1039900064D0C16B002961D0016C00295ED0417AEE
:1039A000012280F84720D9B3C16B002956D0016CA1
:1039B000002953D0417AC27AB1FA81F149094368AA
:1039C000C9016D460132064608462946A04796F8C9
:1039D00047207168336CB0720220012A08BF4FF48F
:1039E000E1709847B17A79BBF17A3278695C3046F8
:1039F000914239D1102101730121C17640F20011A9
:103A0000C0F2020181620021818500F0EBFC20B050
:103A1000BDE8704040B27047FF2040B2704700BF21
:103A2000C17A43684A1C694605468020A04795F83C
:103A3000472069682B6CA8720220012A08BF4FF446
:103A4000E1709847A97A29B1FE2020B0BDE8704006
:103A500040B27047AC6B2846002CA5D1FF2020B0A7
:103A6000BDE8704040B270470170FD2020B0BDE855
:103A7000704040B2704700002DE9F047A0B0CAB1D5
:103A8000D2F838C0BCF1000F00F0E080D36B002BFF
:103A900000F0DC804FF0FF0E70B1136C63B14FF09B
:103AA00000094FF0000A002900F0788000244FF050
:103AB000000E13E04FF0FF0E4FFA8EF020B0BDE87D
:103AC000F08700BF4FF0F80E22E000BF013449EA52
:103AD00003098C424AEA050A00F05C80065D202E4C
:103AE0001ED801250023DFE806F01713431B1B1B1C
:103AF0001B1B1B1B1B1B1B1B1B1B1B1B1B1B1B1B16
:103B00001B1B1B1B1B1B1B1B1B1B1100DEE700BF12
:103B100000250223DAE700BF00250123D6E700BF16
:103B200001348C4203D12DE00134A1422AD0035D3F
:103B3000202BF9D8DFE803F016141A121212121211
:103B40001212121212121212121212121212121255
:103B50001212121212121212200000BFE4E700BF6C
:103B6000B0E700BF4FF0F80ED6E700BF4FF0F80EF9
:103B700000250423AAE700BF012500234FF0F80E1B
:103B8000A4E700BF4FF0F80E4FFA8EF020B0BDE86A
:103B9000F08700BFBEF1000F7FF48EAFD07A517A6C
:103BA000441C5368E8467D200029414615462246BC
:103BB00008BFFD20E04795F8472069682B6CA87284
:103BC0000220012A08BF4FF4E1709847A87A38B163
:103BD0004FF0FE0E4FFA8EF020B0BDE8F08700BF28
:103BE00009F007000AF00101084337D0E87A99FA92
:103BF000A9F118F80000490FAB6B6AF3C3012A461C
:103C000008438DF800000BB3D76BFFB1106CE8B11F
:103C1000536892F8474069467D2015460122B8470F
:103C200069682A6CA8720220012C08BF4FF4E17069
:103C3000904795F80AE0BEF1000F18BF4FF0FE0E56
:103C40004FFA8EF020B0BDE8F08700BF4FF0FF0EB6
:103C50004FFA8EF020B0BDE8F08700BF4FF0000EA5
:103C60004FFA8EF020B0BDE8F087000071B3F0B5D8
:103C7000A1B08D6B25B3CA6B12B30A6C02B30646B2
:103C8000C87A4F7A4B6801AC421C7C20002F0F464B
:103C9000214608BFFC20A84797F8472079683B6C6D
:103CA000B8720220012A08BF4FF4E1709847B87A31
:103CB00080B1FE2021B0BDE8F04040B2704700BFA7
:103CC000FF2021B0BDE8F04040B27047FF2040B275
:103CD000704700BFF87ABB6B205C06F0010100F072
:103CE000FE003A4608448DF804002BB3D66B1EB391
:103CF000106C08B3536892F8474001A97C20154620
:103D00000122B04769682A6CA8720220012C08BF02
:103D10004FF4E17090479DF8040000F00101A87A8B
:103D200085F84710002818BF6FF00C0021B0BDE8DF
:103D3000F04040B2704700BFF32021B0BDE8F04032
:103D400040B2704793B32DE9F04381B00646986BBB
:103D50001C4678B3E76B9FB389464FF0FF0051B321
:103D6000216C41B3607A94F84710002808BF06F030
:103D70007F0601292AD192B3C2F10008002700BFB3
:103D80006368E56BF01909EB0701C0B20122A8478F
:103D90006168226CA0724FF4E1709047A07AF0B98C
:103DA00008EB070001370130EAD118E0FF2040B2EC
:103DB000704700BFFF2001B0BDE8F04340B270473C
:103DC000FF2001B0BDE8F04340B270476368304661
:103DD0004946B8476168226CA072022090477C2E49
:103DE00005D199F8000000F0010084F84700A07A9E
:103DF000002818BF6FF0010001B0BDE8F04340B2E9
:103E0000704700002DE9F04FA5B0002A00F0C082F5
:103E10001446926B002A00F0B582E26B002A00F093
:103E2000B18200284FF0FF0200F0B382236C002B18
:103E300000F0AF8294F84780002900F0AF820DF1C6
:103E4000120A0AF101020092002634254FF00009FF
:103E5000CDE90201B8F1010F09D100202146FFF799
:103E600005FF039902460298002A40F0928209FB5E
:103E700005F2835CF822092B00F28B8209FB050B0B
:103E8000DFE813F00A001000520087028702870261
:103E90008702870287021A000BF10200214600F018
:103EA000CBFF04E00BF10200214601F0DFF803999B
:103EB00002460298CEE100BF637ECDE90766002B83
:103EC0000696059600F0C581226A03EB4303CDF800
:103ED0000480A3F1090CA3F1060EA3F1030A002646
:103EE000955D092D00F03881B24515D0971997F8E6
:103EF0000380B8F1090F00F03181B6450CD0BD79CF
:103F0000092D00F02D81B44506D07D7A092D00F0F1
:103F100029810C36B342E3D1DDF80480F8220DF19B
:103F2000120A002695E100BF9BF8070060B10C283B
:103F300005AD15D30B208BF80700207A40F0020066
:103F40002072A76B87B91DE201208BF80700207A49
:103F500040F0010020729BF807000C2805ADE9D263
:103F6000A76B002F00F00E82E06B002800F00A82A1
:103F7000206C002800F00682E07A617A6368421CB7
:103F800000294FF06B00294608BFEB20B847A0720C
:103F900094F847006168226C01284FF0020008BFC6
:103FA0004FF4E1709047A07A002840F00F82E07A49
:103FB0009BF80210285CA26B00F0DF0061F3451053
:103FC000002A8DF8120000F0DD81E76B002F00F071
:103FD000D981206C002800F0D581636894F847509F
:103FE0006B2051460122B8476168226CA072022002
:103FF000012D08BF4FF4E1709047A07A002840F0EF
:10400000E581A76B05AD002F00F0BC81E06B0028B7
:1040100000F0B881206C002800F0B481E07A617A69
:104020006368821C00294FF04B00294608BFCB2053
:10403000B847A07294F847006168226C01284FF0DD
:10404000020008BF4FF4E1709047A07A002840F0CA
:10405000BD81E07A9BF80910285A9BF8053000F0E2
:10406000010242EA41018DF81210302101EA1020CC
:104070009BF803109BF804209BF8067040EAC110DF
:1040800063F3830062F3861007F003010844002500
:104090008DF813000AE000BF6168226C42F21070D4
:1040A0009047142D05F1010580F08481A76B002F46
:1040B000F2D0E06B0028EFD0206C0028ECD0E07A42
:1040C000617A63680DF1140A421C00294FF0030065
:1040D000514608BF8320B847A07294F84700616832
:1040E000226C01284FF0020008BF4FF4E1709047A6
:1040F000A07A0028D0D1E07A1AF800004007CBD48B
:10410000A06B002800F09080E76B0DF1120A002FE1
:1041100000F08880206C002800F0848094F847002C
:10412000012840F0A1806368E76B4B2051460122D3
:10413000B8476168226CA0724FF4E1709047A57A8D
:10414000002D40F09D806368E76B00994C200122B0
:10415000B8474FF4E1758DE0911905E0F91C03E0D3
:10416000B91D01E007F109014878DDF804808D7878
:1041700005A922460DF1120A0026FEF7E1FE0246CD
:104180000028DDE9020164D105F0FE020DF1140CF6
:104190003CF80270BBF8026007F478476FF3DF2643
:1041A0000CEB020337442CF802705A88BBF80470F9
:1041B00002F478426FF3DF273A445A809A88BBF8BA
:1041C000067002F478426FF3DF273A44EF079A80D3
:1041D00003D105AA2A4453795371A26B0026FAB180
:1041E000E76BEFB1226CDAB194F8470001281FD1D8
:1041F00000256368E76B05F1300005A92944C0B2CA
:104200000122B8476168226CA0724FF4E1709047B8
:10421000A27AC2B90F2D05F10105EAD113E000BF62
:10422000FF2216E0FF252FE0FF250DF1120A2BE0FB
:104230006368302005A91022B8476168226CA0721B
:1042400002209047A27A002A18BF6FF00102DDE930
:1042500002013425130640F09C8009F101098945CB
:104260007FF4F8AD9AE000BF63684B20514602220C
:104270000225B8476168226CA07228469047A57A4B
:10428000002D18BF6FF001056168226C4FF47A7041
:1042900090472A46280640F07C809BF8030034258E
:1042A0000028DDE9020105D00122E2769BF8052015
:1042B000227712E00BF10A014D2001222346E67617
:1042C000FFF740FD6168226C07464FF47A70904713
:1042D000DDE90201002F40F07F80A76B07B3E26B9E
:1042E000F2B1226CE2B1E07A617A6368421C002983
:1042F0004FF0440005A908BFC420B847A07294F845
:1043000047006168226C01284FF0020008BF4FF49B
:10431000E1709047A07A28B1DDE90201FE2299E719
:10432000FF2297E79BF807009BF80810A26B00F0AC
:104330000F0040EA01108DF81200CAB1E76BBFB15F
:10434000206CA8B1636894F847504420514601227C
:10435000B8476168226CA0720220012D08BF4FF49B
:10436000E1709047A57A002D18BF6FF0010500E0BD
:10437000FF256168226C4FF47A709047DDE90201F5
:104380002A4666E7FF2250B225B0BDE8F08F00BF95
:10439000FF2250B225B0BDE8F08F00BFB8F1010F89
:1043A0000ED101202146FFF761FC024650B225B034
:1043B000BDE8F08FF12250B225B0BDE8F08F00BF0C
:1043C000002250B225B0BDE8F08F00BFFE2250B2EF
:1043D00025B0BDE8F08F00BF3A4650B225B0BDE829
:1043E000F08F0000B0B5A2B0B62100288DF80710FC
:1043F0005CD0816B002959D0C46B002C56D0016C65
:10440000002953D090F84710054601290AD1436886
:104410000DF107017E200122A0472A46A8724FF421
:10442000E17008E043680DF107017E200122A047FA
:104430002A46A87202205168126C90472A6C69685B
:10444000AC7A4FF4FA609047012185F847101CB10F
:10445000FE2040B222B0B0BD697A284651B100F0CA
:1044600025F9002804BF0020C5E90C0040B222B0A5
:10447000B0BD00BF846BCCB1C16BB9B1016CA9B147
:10448000C17A43684A1C02A98020A04795F84720BA
:1044900069682B6CA8720220012A08BF4FF4E170F2
:1044A0009847A97A0029D3D12846D8E7FF2040B2FF
:1044B00022B0B0BD2DE9F04381B040F27007C2F2E6
:1044C00000077B6843B1541CB4F5006F0AD9FE2085
:1044D00040B201B0BDE8F083FF2040B201B0BDE8BA
:1044E000F08300BF40F6401640F6000540F0800023
:1044F000C2F20006C4F201053070002091468846E1
:104500003870284610210022FCF73EF9A3B240F291
:1045100040147868C2F2000431462246FCF762FE7D
:1045200080B1284610210122FCF72EF9FE2040B26E
:1045300001B0BDE8F08300BF387830B9387820B9D1
:10454000387810B938780028F6D028461021012292
:10455000FCF71AF9B9F1000F2BD0B9F1040F09F0EB
:10456000030001D2002113E029F0030208F1010346
:10457000002100BF67187E785D1805F8016CBE78D1
:104580005E54FE7804316E703F798A42AF70F1D18B
:1045900078B14A1CA35C012808F8013009D08B1CB3
:1045A000E75C022808F8027003D00819C07808F800
:1045B0000300002040B201B0BDE8F0832DE9F041D6
:1045C00040F27005C2F200056B684BB102F10108C0
:1045D000B8F5805F08D9FE2568B2BDE8F08100BF5C
:1045E000FF2568B2BDE8F08141F2401E00F07F0374
:1045F000C2F2000E8EF8003072B3042A02F0030CEF
:1046000002D2002213E000BF22F003044B1C002260
:104610009E1816F8017C0EEB020047709F5C043276
:10462000877077789442C770B6780671F0D1BCF184
:10463000000F11D08C5C531CBCF1010F0EF803402D
:104640000AD0CC5C931CBCF1020F0EF8034003D0DF
:10465000C95C02EB0E00C17040F60004C4F2010414
:1046600000202870204610210022FCF78DF8686891
:1046700041F240111FFA88F2C2F20001FCF74CFE31
:1046800040B1FE250AE000BF287830B9287820B96B
:10469000287810B928780028F6D000252046102167
:1046A0000122FCF771F868B2BDE8F081002867D0FC
:1046B0002DE9F043A1B00446806B00285AD0E06B8E
:1046C000002857D0206C002854D0B4F84A80B8F1A4
:1046D000000F4FD0E68916F00100304618BF0138B0
:1046E00002D181B2012904D886B2022E98BF0226D7
:1046F000E68100202146FFF7B9FA002863D10020A7
:10470000214600F059FC00285DD1B8FBF6F000FB13
:104710001680010638D0C0B2A8EB0007E68938043D
:1047200012D000251FFA87F96069A9B20844B2B215
:10473000234600F085FDE6893544A9B2494501D2FA
:104740000028F1D000283ED1B9B202204145E081D5
:104750002CD202226069B9B2084492B2234600F01A
:104760006FFDE2891744B9B2414520D20028F1D04B
:104770001DE000BFFF2021B0BDE8F04340B270470C
:10478000FF2040B2704700BFE28900266069B1B2E5
:10479000084492B2234600F053FDE2891644B1B2B8
:1047A000414505D20028F1D002E000BF0020E6819B
:1047B00048B90120214600F0FFFB20B90120214625
:1047C000FFF754FA20B121B0BDE8F04340B2704782
:1047D000A06B38B3E06B28B3226C1AB3616844F65F
:1047E00020609047A76BEFB1E06BD8B1206CC8B1E7
:1047F000E07A617A636801AD421C212000292946D4
:1048000008BFA120B84794F847206168236CA072C4
:104810000220012A08BF4FF4E1709847A07A88B1BE
:10482000FE2100E0FF21002060740128084618BF27
:104830006FF00800002918BF084621B0BDE8F0431A
:1048400040B27047E07A0021285C00F00F00EBE7EF
:1048500010B540F27804C2F20004207810B10020B4
:1048600010BD00BF40F2D80042F2C811C2F20000F1
:10487000C2F20001FEF770FA002818BF10BD40F226
:10488000D800C2F20000FEF7EFFA00281CBF022099
:1048900010BD01202070002010BD00002DE9F04166
:1048A000A0B0002966D08D6B002D63D0CA6B002AA2
:1048B00060D00A6C002A5DD08046C87A4E7A4B6878
:1048C0006C46821C4B20002E0E46214608BFCB2092
:1048D000A84796F847207168336CB0720220012A0D
:1048E00008BF4FF4E1709847B17A29B1FE2040B279
:1048F00020B0BDE8F08100BFF17A30466218635CF9
:1049000052785B0888F80730D30955B288F801302F
:10491000C2F3801388F80230C2F3810302F003026D
:10492000B5F1FF3F88F8033088F804202CDD856B53
:1049300005B3C26BF2B1026CE2B1477A43686C46D0
:104940004A1C4D202146002F08BFCD20A84796F8CD
:1049500047207168336CB0720220012A08BF4FF4FF
:10496000E1709847B07A58B1FE2040B220B0BDE85F
:10497000F08100BFFF2040B220B0BDE8F08100BF51
:10498000F07A205C88F80800002040B220B0BDE832
:10499000F081000098B0FBF711FF00240120CDE961
:1049A0000544CDE90344009004904FF4E0104FF427
:1049B0008031022509906846CDE90114CDE90751FF
:1049C000FCF7B2F820B1EFF3108072B6FEE700BF3B
:1049D0000F20CDE90A054FF48060CDE90D040AA847
:1049E00002210C94FBF79AFF20B1EFF3108072B60E
:1049F000FEE700BF002441F21805CDE90244CDE9ED
:104A00000044C4F20205286840F6000A40F0100095
:104A100028602868C4F2010A00F010000A900A9881
:104A200028680AF5006740F02000286028684FF4E5
:104A3000005100F020000A900A982868002240F0F7
:104A40000400286028684FF4005600F004000A9023
:104A50000A98286840F008002860286800F00800DC
:104A60000A900A983846FBF78FFE504648F61041E8
:104A70000022FBF789FE0AF58069484648F20831B2
:104A80000022FBF781FE009611206E46CDE901045D
:104A90004FF0020B38463146CDF80CB0FBF766FDFF
:104AA0001020009003200127039050463146CDE9A5
:104AB0000174FBF75BFD4FF4004848463146CDE9F1
:104AC0000087CDE9024BFBF751FD4FF44060CDE983
:104AD000000750463146CDE9024BFBF747FD4FF446
:104AE0008050CDE90004504631460294FBF73EFD6C
:104AF00050463146CDE90087CDE90247FBF736FD48
:104B00004FF44270CDE9000748463146CDE90247EF
:104B1000FBF72CFD55F8040C002140F0010045F88E
:104B2000040C55F8040C002200F0010000900098DD
:104B30000C20FBF7B7FE0C20FBF7A2FE0D20002196
:104B40000022FBF7AFFE0D20FBF79AFE42F2C810E1
:104B50000AF52051C2F200004FF4827280E816007C
:104B600010214FF40073C1610A21C0E90344C0E978
:104B70000543C0E90844C0E90A41FCF75FFA28B1DF
:104B8000EFF3108072B600BFFEE700BF40F22006D0
:104B9000C2F200060AF51051304640F8081F41F6EF
:104BA0001F411794CDE91544CDE912440694C0E99C
:104BB0000144C0E90314C0E90544FCF7C1FC28B175
:104BC000EFF3108072B600BFFEE700BF4FF48050D5
:104BD00006F10805149014A92846FCF7BFFD28B17A
:104BE000EFF3108072B600BFFEE700BF2846FDF766
:104BF0007FF928B1EFF3108072B600BFFEE700BF67
:104C000012A92846FCF75CFC20B1EFF3108072B6C5
:104C1000FEE700BF60200A900020CDE90B00CDE93F
:104C20000D00CDE90F000AA928460022FDF75EF825
:104C300020B1EFF3108072B6FEE700BF0AA9284644
:104C40000422FDF753F828B1EFF3108072B600BFCD
:104C5000FEE700BF4FF40050002405906946284647
:104C60000494CDE90244CDE900440794FCF702FC2A
:104C700020B1EFF3108072B6FEE700BF2846FDF7C3
:104C800007F842F22020C2F200004FF0804140F2CB
:104C9000E7330394CDE90144CDE90A44472280E893
:104CA0001600C0E903348461FCF74AFC20B1EFF33D
:104CB000108072B6FEE700BF4FF48050009042F2C1
:104CC0002020C2F200006946FCF748FD20B1EFF356
:104CD000108072B6FEE700BF42F22020C2F2000050
:104CE0000AA9FCF7EDFB18B1EFF3108072B6FEE7EE
:104CF00042F268200021AAF58232C2F20000C0E927
:104D0000002103224FF6FF73CDE900210122CDE9F6
:104D10000A11C0E9021301618161CDE90221CDE9E7
:104D20000411CDE9062108916946FCF7E7FD18B1A9
:104D3000EFF3108072B6FEE742F26820C2F2000084
:104D40000AA9FCF7BDFB18B1EFF3108072B6FEE7BD
:104D500042F2F820AAF54041C2F2000000240C23E0
:104D60004FF4E13280E81600C0E90344C0E905349D
:104D7000C461FDF79BFC18B1EFF3108072B6FEE73B
:104D800042F2B020AAF58031C2F20000C0E900145E
:104D90000321CDE9001401214FF6FF72CDE9021481
:104DA000CDE906146946CDE90A44C0E9024204612E
:104DB0008461CDE904440894FCF7A0FD20B1EFF331
:104DC000108072B6FEE700BF42F2B020C2F20000CF
:104DD0000AA9FCF775FB18B1EFF3108072B6FEE775
:104DE000FFF736FD28460021FDF704F92846042187
:104DF000FDF700F928460C21FDF7FCF850464FF46A
:104E0000006101220124FBF7BFFC2846FCF750FC9F
:104E10004FF4FA60FBF796FB4FF4FA603460FBF74F
:104E200091FB50464FF40061FBF7A8FC0128F8D134
:104E30002846FCF775FCF4E78278022A06D30122A3
:104E400082700A7A42F002020A7282784378012A5A
:104E500004D1032B0AD9032303E000BF082B05D399
:104E6000072343700B7A43F002030B720378002B85
:104E70004AD00D2B05D30C2303700B7A43F00203A9
:104E80000B7270B5A2B0C378042B05D30323C37093
:104E90000E7A46F002060E7246780078D20166F36A
:104EA000061200F00F00104400298DF806008DF85E
:104EB000073079D0886B002876D0CE6B002E73D067
:104EC000086C002870D091F847000D46012825D1C4
:104ED0004B68CE6B0DF10604402021460122B047FD
:104EE00069682A6CA8724FF4E1709047A97A284645
:104EF00019BB4368C66B611C41200122B0472A469A
:104F0000A8724FF4E17412E0012303700B7A43F0AE
:104F100001030B7203780D2BADD2B2E74B680DF194
:104F20000601402002220224B0472A46A872516896
:104F3000126C20469047A97A284619B1FE2040B24B
:104F400022B070BD846B7CB3C16B69B3016C59B383
:104F5000467AC17A4368002E02AE01F101024FF099
:104F60001B00314608BF9B20A04795F84720696881
:104F70002B6CA8720220012A08BF4FF4E1709847F9
:104F8000A87A0028DAD1E87A305CC0F382000428DD
:104F90000ED24FF60031C000CFF6FA1121FA00F020
:104FA00040B222B070BD00BFFF2040B222B070BD41
:104FB000002040B222B070BDF0B5A1B0002951D0A0
:104FC0008D6B002D4ED0CA6B002A4BD00A6C002A84
:104FD00048D00646C87A4F7A4B6801AC421C59202B
:104FE000002F0F46214608BFD920A84797F8472031
:104FF00079683B6CB8720220012A08BF4FF4E17057
:105000009847B87A20B1FE2040B221B0F0BD00BF71
:10501000F87ABB6B205C06F0010100F0FE003A4616
:1050200008448DF80400EBB1D66BDEB1106CC8B14A
:10503000536892F8474001A9592015460122B0470C
:1050400069682A6CA8720220012C08BF4FF4E17035
:105050009047A87A002818BF6FF0010040B221B035
:10506000F0BD00BFFF2040B221B0F0BD70B5A2B0CE
:1050700082780023022AADF806306DD301228270B7
:105080000B7A43F002030B724378032B67D2437908
:10509000022B6DD3012343710B7A43F002030B7291
:1050A0000378052B67D90E2B6ED30D2303700B7A73
:1050B00043F002030B72C378022B68D20379052BED
:1050C00005D3042303710E7A46F002060E7245786A
:1050D000D2010678C478407965F3051260F3861230
:1050E00006F00F0010448DF8060004F0010043EABA
:1050F000C00000298DF8070000F09A80886B002816
:1051000000F09680CE6B002E00F09280086C002894
:1051100000F08E8091F847000D46012842D14B687F
:10512000CE6B0DF10604422021460122B04769688A
:105130002A6CA8724FF4E1709047A97A284600299A
:105140003FD14368C66B611C43200122B0472A4609
:10515000A8724FF4E1742EE04378032B97D3022317
:1051600043700B7A43F002030B724379022B91D206
:105170000378052B97D8062303700B7A43F00103BD
:105180000B7203780E2B90D2C378022B96D3012397
:10519000C3700B7A43F002030B720379052B90D294
:1051A00095E700BF4B680DF1060142200222022460
:1051B000B0472A46A8725168126C20469047A97AD7
:1051C000284619B1FE2040B222B070BD846B7CB37A
:1051D000C16B69B3016C59B3467AC17A4368002E3A
:1051E00002AE01F101024FF01B00314608BF9B20C7
:1051F000A04795F8472069682B6CA8720220012A05
:1052000008BF4FF4E1709847A87A0028DAD1E87A0D
:10521000305CC0F3820004280ED24FF60031C0008B
:10522000CFF6FA1121FA00F040B222B070BD00BFF3
:10523000FF2040B222B070BD002040B222B070BD4D
:10524000C0B32DE9F04381B0C1F343074909002BF6
:105250008DF802708DF803106ED0996B00296BD019
:10526000DF6B002F68D0196C002965D0814693F858
:105270004700904601281C4620D15D68DF6B0DF188
:1052800002065B20314601222B46B8476168226C3A
:10529000A0724FF4E1709047A07A2746E8B97B6886
:1052A000FF6B711C5C200122B8472246A0724FF4AC
:1052B000E1760CE0FF2040B2704700BF5B680DF163
:1052C00002015B2002220226B8472246A0725168E2
:1052D000126C30469047A07A274628B1FE2001B0D4
:1052E000BDE8F04340B27047B86B28B3FE6B1EB305
:1052F000386C08B397F84700012823D1B8F1000FA4
:105300002DD0C8F1000500267B68FF6B06F15E001A
:1053100009EB0601C0B20122B8476168226CA07295
:105320004FF4E1709047A07AB8B9A9192746013621
:105330000131E9D111E000BFFF2001B0BDE8F04329
:1053400040B270477B685E2049464246B047796864
:105350003A6CB87202209047B87A0028BED100207B
:1053600001B0BDE8F04340B2704702E008C8121F28
:1053700008C1002AFAD170477047002001E001C13E
:10538000121F002AFBD1704700000000000000003F
:1053900001020304060708090000000001020304DB
:1053A0000102C82E002E802E3DB1C82E002E802E68
:1053B0009103802EBCB0802EA303C82E002E802E19
:1053C00000B05030212E59F51030212E6AF5802E74
:1053D0003B030000000008190100220075000010C6
:1053E0000010D100B343802E00C1802E00C1802E5A
:1053F00000C1802E00C1802E00C1802E00C1802EF1
:1054000000C1802E00C1802E00C1802E00C1802EE0
:1054100000C1802E00C1802E00C1802E00C1802ED0
:1054200000C1802E00C1802E00C1802E00C1802EC0
:1054300000C1802E00C1802E00C1802E00C1802EB0
:1054400000C1802E00C1802E00C1802E00C1802EA0
:1054500000C1802E00C1802E00C1802E00C1802E90
:1054600000C1802E00C1802E00C1802E00C1802E80
:1054700000C1802E00C1802E00C1802E00C1802E70
:1054800000C1802E00C1802E00C1802E00C1E05FCF
:10549000000000000100000000000000000000000B
:1054A000920000000000000000000000000000006A
:1054B000000008190000880000000000000005E05E
:1054C000AA3805E09030FA0096004B09110011004F
:1054D00002002D01D47B3B01DB7A04003F7BCD6CC5
:1054E000C3048509C304ECE60C460100270019003B
:1054F0009600A00001000C00F03C00010100030038
:1055000001000E00000032000500EE060400C80095
:1055100000000400A805EE060004BC02B3008507E5
:10552000000000000000000000000000000000007B
:1055300000000000B4000100B90001009800000064
:1055400000000000000001008000040000000000D6
:10555000000000000000000000000000000000004B
:10556000000000000000000000000000000000003B
:10557000000000000000000000000000000000002B
:10558000000000000000000000000000000000001B
:10559000000000000000000000000000802E00C19C
:1055A000FD2DDE00EB00DA00000CFF0F0004C00050
:1055B0005BF5C9011EF280003FFF19F458F566F54E
:1055C00064F5C0F1F000E000CD01D301DB01FF7F05
:1055D000FF01E40074F7F300FA00FF3FCA036C38E0
:1055E00056FE44FDBC02F90600FC1202AE0158FA58
:1055F0009AFD7705BB02960195017F018201890121
:10560000870188018A018C018F018D01920191012E
:10561000DD009F017E01DB00B601706926D39C0787
:105620001F059D000008BC0537FAA201AA01A101CF
:10563000A801A001A805B401B401CE00D000FC006F
:10564000C501FFFBB10000380030FDF5FCF5CD01D0
:10565000A0005FFF0040FF0000806D0FEB007FFFA8
:10566000C2F568F7B3F1670F5B0F610F800F58F752
:105670005BF7830F8600720F850FC6F17F0F6CF703
:1056800000E000FFD1F5870F8A0FFF03F03F8B008A
:105690008E009000B9002DF5CAF5CB0120F2000074
:1056A00000000000000000000000000000000000FA
:1056B00000000000000000000000000000000000EA
:1056C00000000000000000000000000000000000DA
:1056D00000000000000000000000000000000000CA
:1056E00000000000000000000000000000000000BA
:1056F00000000000000000000000000000000000AA
:105700000000000000000000000000000000000099
:105710000000000000000000000000000000000089
:105720000000000000000000000000000000000079
:105730000000000000000000000000000000000069
:105740000000000000000000000000000000000059
:105750000000000000000000000000000000000049
:105760000000000000000000000000000000000039
:10577000000000000000000000003050982ED70EFE
:105780005032982EFA030030F07F002E002ED02EDB
:10579000002E018008A2FB2F982EBA03212E19009B
:1057A000012EEE0000B2072F012E190000B2032FC8
:1057B00001500352982E07CC012EDD0000B2272F96
:1057C000052E8A000552982EC7C1032EE90040B26B
:1057D000F07F082F012E190000B2042F0030212E77
:1057E000E900982EB4B1012E180000B2102F055018
:1057F000982E4DC30550982E5AC7982EF9B4982E5E
:1058000054B2982E67B6982E17B21030212E77001A
:10581000012EEF0000B2042F982E7AB70030212E0F
:10582000EF00012ED40004AE0B2F012EDD0000B2DC
:10583000072F0552982E8E0E00B2022F1030212E07
:105840007D00012E7D000090902EF102012ED700E8
:1058500000B2042F982E2F0E0030212E7B00012E37
:105860007B0000B2122F012ED4000090022F982E40
:105870001F0E092D982E810D012ED4000490022FA9
:105880005032982EFA030030212E7B00012E7C002E
:1058900000B2902E0903012E7C000131010800B2F4
:1058A000042F982E47CB1030212E77008130012E07
:1058B0007C00010800B2612F032E8900012ED40064
:1058C00098BC98B805B20F58232F079009540030A0
:1058D000372F15410441DCBE44BEDCBA2C01610007
:1058E0000F564A0F0C2FD14294B8C1421130052EE9
:1058F0006AF72CBD2FB980B20822982EC3B7212D8C
:105900006130232ED400982EC3B70030212E5AF5D3
:10591000182DE17F5030982EFA030F520750504255
:1059200070300D5442427E82E26F80B24242052FB7
:10593000212ED4001030982EC3B7032D6030212EB5
:10594000D400012ED4000690182F012E76000B549F
:105950000752E07F982E7AC1E16F081A4030082F75
:10596000212ED4002030982EAFB75032982EFA0353
:10597000052D982E380E0030212ED4000030212E17
:105980007C00182D012ED40003AA012F982E450E5D
:10599000012ED4003F8003A2012F002E022D982E4D
:1059A0005B0E3030982ECEB70030212E7D00503265
:1059B000982EFA03012E770000B2242F982EF5CBF3
:1059C000032ED5001154010ABC848386212EC901FF
:1059D000E0401352C4408240A8B9524243BE5342F1
:1059E000040A5042E17FF0314140F26F25BD0808C2
:1059F000020AD07F982EA8CF06BCD16FE26F080AAA
:105A00008042982E58B70030212EEE00212E7700CC
:105A1000212EDD00802EF4011A242200802EEC01BC
:105A20001050FB7F982EF3035750FB6F01307154D9
:105A30001142420EFC2FC02E0142F05F802E00C1A9
:105A4000FD2D0100000000000000000000009A0190
:105A5000340300000000000000000000000000000F
:105A60000000000000000000000000000000000036
:105A70000000000000000000000000000000000026
:105A80000000000000000000000000000000000016
:105A90000000000000000000000000000000000006
:105AA00000000000000000000000000000000000F6
:105AB00000000000000000000000000000000000E6
:105AC000000000002050E77FF67F06320F2E61F5C0
:105AD000FE09C0B3042F17302F2EEF002D2E61F5D5
